{
  "_format": "hh-sol-artifact-1",
  "contractName": "SimpleStorage",
  "sourceName": "contracts/simple-storage.sol",
  "abi": [
    {
      "inputs": [
        {
          "internalType": "string",
          "name": "_ownerName",
          "type": "string"
        }
      ],
      "stateMutability": "nonpayable",
      "type": "constructor"
    },
    {
      "anonymous": false,
      "inputs": [
        {
          "indexed": true,
          "internalType": "address",
          "name": "ownerAddress",
          "type": "address"
        },
        {
          "indexed": false,
          "internalType": "string",
          "name": "ownerName",
          "type": "string"
        }
      ],
      "name": "OwnerSet",
      "type": "event"
    },
    {
      "anonymous": false,
      "inputs": [
        {
          "indexed": false,
          "internalType": "uint256",
          "name": "newValue",
          "type": "uint256"
        }
      ],
      "name": "ValueUpdated",
      "type": "event"
    },
    {
      "inputs": [],
      "name": "getValue",
      "outputs": [
        {
          "internalType": "uint256",
          "name": "",
          "type": "uint256"
        }
      ],
      "stateMutability": "view",
      "type": "function"
    },
    {
      "inputs": [],
      "name": "owner",
      "outputs": [
        {
          "internalType": "address",
          "name": "",
          "type": "address"
        }
      ],
      "stateMutability": "view",
      "type": "function"
    },
    {
      "inputs": [],
      "name": "ownerName",
      "outputs": [
        {
          "internalType": "string",
          "name": "",
          "type": "string"
        }
      ],
      "stateMutability": "view",
      "type": "function"
    },
    {
      "inputs": [
        {
          "internalType": "uint256",
          "name": "_value",
          "type": "uint256"
        }
      ],
      "name": "setValue",
      "outputs": [],
      "stateMutability": "nonpayable",
      "type": "function"
    }
  ],
  "bytecode": "0x608060405234801561000f575f5ffd5b5060405161064a38038061064a83398101604081905261002e916100ad565b5f80546001600160a01b03191633179055600161004b82826101f6565b505f546040516001600160a01b03909116907f3d6aba6def46bd8784b0b6505c24d0aa59cd9316e6c5db593d3d8470797d7a3e9061008b906001906102b0565b60405180910390a250610337565b634e487b7160e01b5f52604160045260245ffd5b5f602082840312156100bd575f5ffd5b81516001600160401b038111156100d2575f5ffd5b8201601f810184136100e2575f5ffd5b80516001600160401b038111156100fb576100fb610099565b604051601f8201601f19908116603f011681016001600160401b038111828210171561012957610129610099565b604052818152828201602001861015610140575f5ffd5b5f5b8281101561015e57602081850181015183830182015201610142565b505f91810160200191909152949350505050565b600181811c9082168061018657607f821691505b6020821081036101a457634e487b7160e01b5f52602260045260245ffd5b50919050565b601f8211156101f157805f5260205f20601f840160051c810160208510156101cf5750805b601f840160051c820191505b818110156101ee575f81556001016101db565b50505b505050565b81516001600160401b0381111561020f5761020f610099565b6102238161021d8454610172565b846101aa565b6020601f821160018114610255575f831561023e5750848201515b5f19600385901b1c1916600184901b1784556101ee565b5f84815260208120601f198516915b828110156102845787850151825560209485019460019092019101610264565b50848210156102a157868401515f19600387901b60f8161c191681555b50505050600190811b01905550565b602081525f5f83546102c181610172565b806020860152600182165f81146102df57600181146102fb5761032c565b60ff1983166040870152604082151560051b870101935061032c565b865f5260205f205f5b8381101561032357815488820160400152600190910190602001610304565b87016040019450505b509195945050505050565b610306806103445f395ff3fe608060405234801561000f575f5ffd5b506004361061004a575f3560e01c8063209652551461004e578063552410771461006457806365ac2320146100795780638da5cb5b1461008e575b5f5ffd5b6002546040519081526020015b60405180910390f35b61007761007236600461021d565b6100d2565b005b610081610191565b60405161005b9190610234565b5f546100ad9073ffffffffffffffffffffffffffffffffffffffff1681565b60405173ffffffffffffffffffffffffffffffffffffffff909116815260200161005b565b5f5473ffffffffffffffffffffffffffffffffffffffff163314610156576040517f08c379a000000000000000000000000000000000000000000000000000000000815260206004820152600960248201527f4e6f74206f776e65720000000000000000000000000000000000000000000000604482015260640160405180910390fd5b60028190556040518181527f4273d0736f60e0dedfe745e86718093d8ec8646ebd2a60cd60643eeced5658119060200160405180910390a150565b6001805461019e9061027f565b80601f01602080910402602001604051908101604052809291908181526020018280546101ca9061027f565b80156102155780601f106101ec57610100808354040283529160200191610215565b820191905f5260205f20905b8154815290600101906020018083116101f857829003601f168201915b505050505081565b5f6020828403121561022d575f5ffd5b5035919050565b602081525f82518060208401525f5b818110156102605760208186018101516040868401015201610243565b505f604082850101526040601f19601f83011684010191505092915050565b600181811c9082168061029357607f821691505b6020821081036102ca577f4e487b71000000000000000000000000000000000000000000000000000000005f52602260045260245ffd5b5091905056fea2646970667358221220c416d6f420a0dd270b99cd085111cc6d5ac35d3613a02a4e3968300486cae54164736f6c634300081b0033",
  "linkReferences": {},
  "deployedLinkReferences": {}
}